:020000040800F2
:10000000880A0020B53700089110000893100008F6
:10001000A3100008A7100008AB10000800000000A3
:10002000000000000000000000000000AF10000809
:10003000B110000800000000B3100008B51000085F
:10004000CF370008CF370008CF370008CF37000878
:10005000CF370008CF370008CF370008CF37000868
:10006000CF370008CF370008CF370008CF37000858
:10007000CF370008CF370008CF370008CF37000848
:10008000CF370008CF370008CF370008CF37000838
:10009000CF370008CF370008CF370008CF37000828
:1000A000CF370008CF370008CF370008CF37000818
:1000B000490D0008CF370008CF370008CF370008B8
:1000C000CF370008CF370008CF370008CF370008F8
:1000D000CF370008C1110008630B00089F0B000810
:1000E000CF370008CF370008CF370008CF370008D8
:1000F000CF370008CF370008CF370008CF370008C8
:10010000CF370008CF370008CF370008CF370008B7
:10011000CF370008CF370008CF370008CF370008A7
:10012000CF370008CF370008CF370008CF37000897
:1001300000F002F800F05FF80AA090E8000C82449A
:100140008344AAF10107DA4501D100F054F8AFF277
:10015000090EBAE80F0013F0010F18BFFB1A43F0A5
:1001600001031847C4390000E43900000A444FF085
:10017000000C10F8013B13F0070408BF10F8014B06
:100180001D1108BF10F8015B641E05D010F8016B4B
:10019000641E01F8016BF9D113F0080F1EBF10F8AF
:1001A000014BAD1C0C1B09D16D1E58BF01F801CBD2
:1001B000FAD505E014F8016B01F8016B6D1EF9D555
:1001C0009142D6D37047000000230024002500266A
:1001D000103A28BF78C1FBD8520728BF30C148BFAA
:1001E0000B607047642903F04783002070471FB5F8
:1001F0001FBD10B510BD03F067FC1146FFF7F7FFF8
:1002000000F065FB03F085FC03B4FFF7F2FF03BCCD
:1002100000F056FF70B50025012001F02FF90024F1
:1002200044E0F948005D642801D1012000E000208D
:10023000F54A611C515C652901D1012100E00021D2
:100240000840002830D0F049601D085C312808D1F2
:100250004FF47A70ED490860EDA003F0CDFA012566
:1002600022E0E949601D085C322808D14FF4FA60A9
:10027000E6490860EBA003F0BFFA012514E0E2496B
:10028000601D085C332808D140F6B830DF490860AB
:10029000E9A003F0B1FA012506E04FF4FA60DB496A
:1002A0000860E0A003F0A8FA601CC4B2C82CB8DB58
:1002B000012D01D1012070BD0020FCE710B50446DE
:1002C0002146D14803F014FB08B1012010BD0020E5
:1002D000FCE7002004E00021CB4A1154411C88B205
:1002E000C828F8DBC849D94A116070472DE9F041A8
:1002F00004460D461646A046FFF7EBFF00272FE009
:100300002846FFF7DBFFF8B9D148007840BB4446E8
:100310000BE000BF4021CF4802F004FE0028F9D0D6
:100320002178CC4802F090FD641C20780028F0D1A0
:10033000C9A000F08CFF0020C8490870C8480670AA
:100340000120C34908700BE001270020C049087054
:10035000012001F093F8AC4800F027FFFFF75AFFA7
:10036000002FCDD0012001F089F8BDE8F0812DE902
:10037000F04104460D461646A046FFF7AAFF0027A7
:100380002DE02846FFF79AFFF8B9B148007830BB56
:1003900044460BE000BF4021AE4802F0C3FD0028F8
:1003A000F9D02178AB4802F04FFD641C207800287A
:1003B000F0D1A9A000F04BFF0020A8490870A84880
:1003C00006700120A249087009E001270020A04919
:1003D0000870012001F052F88B4800F0E6FE002F73
:1003E000CFD0012001F04AF8FFF773FFBDE8F0819C
:1003F00010B503229BA19C48FFF7B9FF9BA000F01A
:10040000B3FE042297A1A0A0FFF7B1FFA2A000F0C5
:10041000ABFE042293A1A4A0FFF7A9FF042291A19F
:10042000A1A0FFF763FFA3A000F09EFE10BD002077
:1004300004E00021A64A1154411C88B2C828F8DB08
:10044000A349A44A1160704770B50025012001F04E
:1004500015F8002429E06C48005D322801D1012004
:1004600000E00020684A611C515C302901D1012163
:1004700000E000210840644AA11C515C302901D1F0
:10048000012100E00021084038B193A000F06CFE8B
:1004900071A000F069FE012505E098A000F064FE5F
:1004A0006DA000F061FE601CC4B2C82CD3DB012D2E
:1004B00001D1012070BD0020FCE72DE9F041044688
:1004C0000D461646A046FFF704FF002736E02846F3
:1004D000FFF7F4FE00BB5E48007800282ED14446AA
:1004E0000BE000BF40215B4802F01CFD0028F9D062
:1004F0002178584802F0A8FC641C20780028F0D12C
:1005000055A000F0A4FE002054490870544806701D
:1005100001204F49087011E0012700204C49087064
:10052000012000F0ABFF384800F03FFEFFF78CFFE2
:1005300020B978480078401C76490870002FC6D052
:10054000FFF7C7FEBDE8F08110B5012245A1724852
:10055000FFF70DFF71A000F007FE012272A14AA073
:10056000FFF7ABFF4CA000F0FFFD01223DA14EA024
:10057000FFF7FDFE4FA000F0F7FDFFF7AAFE10BD4C
:1005800010B5FFF7A6FE032236A168A0FFF7EFFE25
:1005900010BD552000BF6749098801F0800100297E
:1005A000F9D06449091D0880704710B5012262A185
:1005B00035A0FFF782FF38A000F0D6FDFFF789FED7
:1005C00010BD10B5032227A15CA0FFF7D0FE63A0E9
:1005D00000F0CAFD032223A164A0FFF7C8FE6AA0B1
:1005E00000F0C2FD04226CA16CA0FFF7C0FE6FA05A
:1005F00000F0BAFD032268A172A0FFF7B8FE74A054
:1006000000F0B2FD10BD00006C01002030010020A0
:10061000D1A1D4F1E3D0D6B5CEAA313030300D0A15
:1006200000000000D1A1D4F1E3D0D6B5CEAA32307B
:1006300030300D0A00000000D1A1D4F1E3D0D6B5CE
:10064000CEAA333030300D0A000000001001002027
:1006500022010020004400400D0A0000200100207B
:10066000210100204F4B000000000020B7A2CBCD9D
:10067000D7B4CCACB1A8B8E6A3ACD1A1D4F1E3D047
:10068000D6B50D0A0000000041542B485454504187
:100690004354494F4E3D3000474554BBE1BBB0BFCA
:1006A000AACABC0D0A00000041542B4854545052B1
:1006B00045414400B6C1C8A1B7B5BBD8D6B52CCD0D
:1006C000EAB3C9B7A2CBCDB9FDB3CC0D0A00000087
:1006D0003402002018010020B7A2CBCDB3C9B9A6BF
:1006E0002E2E2E2A2A2A2A2A2A2A2A2A2E2E2E2E4E
:1006F0002A2A2A2E2E2E2E2E00000000B7A2CBCDA5
:10070000CAA7B0DC2E2E2E2E2E2ED6D8D0C2B7A23F
:10071000CBCD00002C01002092030020B7C3CECA2D
:10072000CDF8D5BE0D0A00003230300041544530BE
:1007300000000000004800403000000041542B53EE
:10074000415042523D332C312C22436F6E747970EC
:1007500065222C224750525322000000C5E4D6C324
:10076000B3D0D4D8B3A1BEB0310D0A0041542B533D
:10077000415042523D332C312C2241504E222C22EA
:10078000434D4E4554220000C5E4D6C3B3D0D4D85F
:10079000B3A1BEB0320D0A004F00000041542B53EC
:1007A000415042523D312C3100000000BCA4BBEE50
:1007B000D2BBB8F647505253C9CFCFC2CEC40D0AF0
:1007C0000000000041542B48545450494E495400F5
:1007D000B3F5CABCBBAF48545450B7FECEF10D0AB6
:1007E000000000000020FD490870FD490870FD4927
:1007F0000870FD48FD49086008460068FC4908602B
:10080000FC48FD49086008460068FC4908607047DC
:1008100008B500214FF0006000F015FF4FF4A06014
:1008200000F0DAFE1C208DF8000004208DF8010095
:1008300000208DF8020001208DF80300684600F0CA
:10084000D0FE25208DF8000003208DF80100002047
:100850008DF8020001208DF80300684600F0C1FE0B
:1008600026208DF8000002208DF8010000208DF870
:10087000020001208DF80300684600F0B2FE272038
:100880008DF8000001208DF8010000208DF8020095
:1008900001208DF80300684600F0A3FE08BD10B5E6
:1008A00000F008FE00F0A4FDFFF7B2FF00F048FEE4
:1008B0004FF4E13000F013FC4FF4E13000F081FC24
:1008C0004FF4165000F0D6FC00F041FD10BDFFF7CC
:1008D000E6FFCBA000F048FCFFF784FFCFA000F0BC
:1008E00043FCD549D54803F015F8D549D34803F062
:1008F00054F8D449D14803F050F8D14800F034FC02
:10090000AFF2AC2002F078FF052000F0B7FDFFF752
:1009100037FEFFF756FECCA000F026FCFFF768FD7F
:10092000CF480168CFA002F067FFAFF2D42002F0F9
:1009300063FFCDA002F060FF40F6FE71062000F0DC
:1009400021FE0DE1FFF725FEAA484078CF49087047
:10095000A8488078CE49087000F026FECC48007880
:10096000CA49097840EA0120CA4908600846006877
:10097000BB49096888420FDAC7A000F0F5FBAFF267
:10098000283000F0F1FBC7480078401CC5490870CA
:10099000142000F063FD3EE0BE480068B0490968DD
:1009A000884201DD012000E00020BE4909780329CA
:1009B00001DD012100E000210840002822D0BA48D2
:1009C0000078401CB8490870B8A000F0CDFBAFF229
:1009D000783000F0C9FBB4480178BAA002F00CFFEF
:1009E000BEA000F0C1FBB0480078012802DDFFF78F
:1009F000DCFD01E0FFF7A8FDBFA000F0B5FB002083
:100A0000A8490870C0A000F0AFFBBEA000F0ACFB8E
:100A10000020A4490870BE48007802287EDDBDA0F1
:100A200002F0EAFEBA480078C24908707EE0FFF79B
:100A3000B0FD70484078954908706E4880789449B8
:100A4000087000F0B1FD924800789049097840EABA
:100A50000120904908600846006881490968884279
:100A60000EDA8DA000F080FBA6A000F07DFB8D4883
:100A70000078401C8B490870142000F0EFFC50E017
:100A80008448006876490968884201DD012000E059
:100A9000002084490978032901DD012100E00021BB
:100AA000084000281AD080480078401C7E49087011
:100AB0007EA000F059FB93A000F056FB7A48017825
:100AC00080A002F099FE85A000F04EFBFFF73CFDF0
:100AD00089A000F049FB0020724908708AA000F04C
:100AE00043FB88A000F040FB00206E490870012005
:100AF00000F0C4FC90A000F0AAFB012000F0BEFCB6
:100B000076A000F031FBFFF73BFDFFF71DFD7AA05B
:100B100000F02AFB7E480078401E00E00BE07C4994
:100B2000087084480078401E824908708148007827
:100B300000283FF77CAFFFF77AFCC82000F08EFC5E
:100B40007E480068401C7D4908600846006844F201
:100B50005061884204D1FFF74BFC002077490860C0
:100B6000F0E610B5002440F22551754802F0F0F986
:100B7000A0B1734802F06CF9C4B21C48006804705C
:100B80001A480068401C1949086008460168164860
:100B9000C830814202D9C8381449086010BD10B568
:100BA000002440F22551674802F0D2F9A0B165480F
:100BB00002F04EF9C4B21048006804700E48006894
:100BC000401C0D490860084601680A48C830814247
:100BD00002D9C8380849086010BD00002001002073
:100BE00021010020220100206C01002010010020C2
:100BF0001401002034020020180100201C010020F4
:100C0000CFB5CDB3B3F5CABCBBAF2E2E2E2E2E2E34
:100C10002E2E2E2E2E2E2E0D0A000000B1E4C1BF66
:100C2000B3F5CABCBBAF2E2E2E2E2E2E2E2E2E2E60
:100C30002E2E2E0D0A0000009600002092030020A8
:100C4000FA00002006010020B4F2BFAA4854545014
:100C50002E2E2E2E2E2E2E2E2E2E2E0D0A00000083
:100C600030010020256400006F70656E2074686597
:100C700020646F67202E2E2E2E2E2E2E2E2E2E2E00
:100C80002E2E2E2E2E2E2E0D0A00000028010020C2
:100C9000290100202401002059657321205374721A
:100CA000737421002B0100202A0100205965732153
:100CB000207468657265206973206F6E65206361BA
:100CC000720000007468652073756D206F66207473
:100CD0006865206361723A25640D0A0047505253DB
:100CE000C4A3BFE9BFAACABCC1ACBDD3B7FECEF195
:100CF000C6F70D0A00000000CAFDBEDDB7A2CBCDCD
:100D0000B3C9B9A60D0A00004E6F5F63617200009F
:100D10002C010020BDF8D0D0C8DDB4EDB4A6C0EDE4
:100D20002E2E2E2E2E2E2E2E2E2E2E2E2E2E2E2EE3
:100D30002E2E00002D0100202B2B2B003401002033
:100D4000004400400048004010B50121880701F030
:100D50002AFF20B30121880701F036FF7848007888
:100D600020B178480078401C7649087075480078B2
:100D700075490978884204DD00207149087071497D
:100D800008707248007828B100F01BFB00206F4902
:100D9000087004E000F01CFB01206C49087010BDD5
:100DA00010B56BA000F053FA642000F057FB02224C
:100DB0006BA16DA0FFF7DBFA0222AFF258716DA0B4
:100DC000FFF7D5FA0222AFF264716EA0FFF7CFFAF7
:100DD0000222AFF2707172A0FFF7C9FA0222AFF2DD
:100DE0007C7172A0FFF7C3FA0222AFF2887175A07E
:100DF000FFF7BDFA0222AFF2947175A0FFF7B7FAC0
:100E00000222AFF2A07176A0FFF7B1FA0222AFF290
:100E1000AC7177A0FFF7ABFA642000F01FFBFFF77F
:100E200058FA10BD10B50322AFF2C87176A0FFF7D3
:100E30009EFA78A000F098F90322AFF2D8717BA057
:100E4000FFF795FA7DA000F08FF910BD10B50322D1
:100E5000AFF2F0717DA0FFF749FA7EA000F084F9AF
:100E6000804800F081F98049804802F096FD804971
:100E70007E4802F092FD7D4800F076F910BD10B575
:100E80007C4800687C49096888421AD000BF40212C
:100E90007A4802F047F80028F9D0764800680178CF
:100EA000764801F0D1FF73480068401C7149086022
:100EB000084601686B48C830814202D9C8386D497C
:100EC000086010BD10B56E4800686E490968884218
:100ED00019D000BF40216C4802F024F80028F9D056
:100EE000674800680178684801F0AEFF6448006810
:100EF000401C63490860084601686448814202D981
:100F0000C8385F49086010BD2DE9F04707460D4617
:100F10001646A8463C46284602F020FD81464E452E
:100F200000DD4E4603E018F8010B04F8010B300019
:100F3000A6F10106F7D104F8010B3846BDE8F087A9
:100F40002201002020010020210100203801002082
:100F500041542B434950434C4F53453D3100000011
:100F600053485554204F4B0041542B43495053484C
:100F70005554000041542B4347434C4153533D22A9
:100F80004222000041542B434744434F4E543D31CD
:100F90002C224950222C22434D4E45542200000061
:100FA00041542B43474154543D31000041542B439D
:100FB0004950435347503D312C22434D4E45542216
:100FC0000000000041542B4349504D55583D30001E
:100FD00041542B434950484541443D3100000000F5
:100FE00041542B4349504D4F44453D3100000000D2
:100FF00041542B434950434346473D342C352C3212
:1010000030302C310000000041542B4854545054CF
:1010100045524D00BDE1CAF848545450B7FECEF1D8
:10102000C6F7CAFDBEDD0D0A0000000041542B5377
:10103000415042523D302C3100000000B9D8B1D5AA
:10104000CAFDBEDDC1ACBDD30D0A000041542B4327
:1010500043494400B2E9D1AFC9E8B1B849440D0AE7
:10106000000000006C01002000000020FC020020B5
:10107000FA0000201401002010010020004400406C
:101080001C0100201801002000480040FC02002044
:1010900070470A48006800F0010000B100BE00BFC0
:1010A000FEE700BFFEE700BFFEE700BFFEE77047B8
:1010B0007047704710B500F0F4F910BDF0ED00E096
:1010C000014600BF704700BF984A128802F04002F4
:1010D000002AF9D0C2B2954B1B1D1A80704710B57B
:1010E00086B00446012144F2040000F0FFFD8F4861
:1010F00001F06EFD4FF40070ADF8140018208DF86B
:10110000170003208DF8160005A9894800F032FB6E
:101110004FF48060ADF8140004208DF8170005A985
:10112000834800F027FB01940020ADF80800ADF8DB
:101130000A00ADF80C00ADF810000C20ADF80E0060
:1011400001A97A4801F087FD012240F22551774834
:1011500001F019FE0121754801F009FE4021734894
:1011600001F0EDFE06B010BD10B504460BE000BF67
:1011700040216E4801F0D6FE0028F9D014F8011B7A
:101180006A4801F061FE20780028F0D110BD10B54A
:1011900004462146654801F057FE00BF80216348A0
:1011A00001F0C0FE0028F9D010BD10B5044603E0E0
:1011B00014F8010BFFF7EBFF20780028F8D110BDE1
:1011C000704710B586B004460121480400F09BFD2D
:1011D0000121042000F08AFD564801F0F9FC0420AA
:1011E000ADF8140018208DF8170003208DF81600B4
:1011F00005A94F4800F0BEFA0820ADF814000420FD
:101200008DF8170005A94A4800F0B4FA01940020AF
:10121000ADF80800ADF80A00ADF80C00ADF810000C
:101220000C20ADF80E0001A9424801F014FD012286
:1012300040F225513F4801F0A6FD01213D4801F053
:1012400096FD40213B4801F07AFE06B010BD10B576
:1012500004460BE000BF4021364801F063FE002841
:10126000F9D014F8011B334801F0EEFD2078002876
:10127000F0D110BD10B586B004460121880400F0FD
:1012800042FD0121082000F031FD2B4801F0A0FCB7
:101290004FF48060ADF8140018208DF8170003207B
:1012A0008DF8160005A9254800F064FA4FF4006097
:1012B000ADF8140004208DF8170005A91F4800F0B0
:1012C00059FA01940020ADF80800ADF80A00ADF815
:1012D0000C00ADF810000C20ADF80E0001A9164866
:1012E00001F0B9FC012240F22551134801F04BFDF9
:1012F0000121114801F03BFD40210F4801F01FFE84
:1013000006B010BD10B504460BE000BF40210A48EE
:1013100001F008FE0028F9D014F8011B064801F07E
:1013200093FD20780028F0D110BD00000038014066
:10133000000801400044004000480040000C01400B
:1013400010B54FF4F071294800F0C3FA10BD08B58C
:101350000121082000F0CAFC4FF47870ADF80000BD
:1013600010208DF8030003208DF8020069461F4805
:1013700000F000FAFFF7E4FF08BD10B520211B487C
:1013800000F0A5FA10BD10B52021184800F0A1FA10
:1013900010BD10B54021154800F099FA10BD10B5E8
:1013A0004021124800F095FA10BD10B580210F4879
:1013B00000F08DFA10BD10B580210C4800F089FABC
:1013C00010BD10B54FF48071084800F080FA10BDD0
:1013D00010B54FF48071054800F07BFA10BD10B5D0
:1013E0004FF4F071014800F072FA10BD000C01409A
:1013F00030B500BF4E4800684FF47A72B0FBF2F18E
:10140000B1F1807F01D301201DE021F07F40401E1B
:101410004FF0E022506150170F22002807DA13071F
:101420001D0E444B00F00F04241F1D5503E013074D
:101430001C0E414B1C5400BF00204FF0E022906175
:101440000720106100200028D4D14FF0E02000696F
:1014500020F001004FF0E021086130BD37490860FD
:101460004FF0E021096941F001014FF0E0221161E4
:1014700000BF324909680029FBD170474FF47A71E7
:1014800041432E4A11604FF0E021096941F001010A
:101490004FF0E022116100BF284909680029FBD103
:1014A00070472648006820B124480068401E234940
:1014B0000860704710B500F0ABFA4FF4803000F0D0
:1014C000C7FA00F004FB0446012C2FD1102001F0D4
:1014D00097FD022001F080FD002000F03EFB00207F
:1014E00000F04DFBA00200F041FB4FF4E01120049E
:1014F00000F016FB012000F01FFB00BF392000F0B8
:10150000CAFA0028FAD0022000F019FB00BF00F050
:101510001FFB0828FBD1012000F020FC0121084618
:1015200000F0F1FB01213D2000F0E0FB10BD0000C8
:101530005801002018ED00E000E400E04001002028
:101540000EB50121084600F0DEFB42F20F70ADF847
:10155000040041F61F40ADF800000020ADF8060081
:10156000ADF8020069464FF0804000F0F7FC012220
:101570001146900701F069F80121880701F04AF847
:101580000EBD000070B504460D4645F2555002F000
:1015900001F8E0B202F001F8A8B202F001F802F09E
:1015A00002F802F005F870BD10B501F0FCFF02A0D2
:1015B00002F022F910BD00002E2E2E2E2E2E2E2EE1
:1015C0002E2E6665656420646F672E2E2E2E2E2EBD
:1015D0002E2E2E2E0D0A000031490143314A116092
:1015E000704770B5002100230F22C47804B32D4C3E
:1015F000246804F4E064C4F5E064210AC1F1040342
:10160000CA40447804FA03F1847814402143090164
:10161000254C0678A155047804F01F050124AC4040
:1016200005786D11AD0005F1E025C5F8004109E030
:10163000047804F01F050124AC401C4D0678761197
:1016400045F8264070BD1A4A0A400243154B1B1F3D
:101650001A60704739B1134A121D12680243114BC8
:101660001B1D1A6006E00F4A121D126882430D4BC3
:101670001B1D1A607047042808D14FF0E02109694A
:1016800041F004014FF0E022116107E04FF0E0214A
:10169000096921F004014FF0E02211617047000058
:1016A0000000FA050CED00E000E400E080E100E05D
:1016B00080FFFF1F10B50446CC48844208D10121A9
:1016C000042000F02DFB0021042000F029FB46E05F
:1016D000C748844208D10121082000F021FB0021E5
:1016E000082000F01DFB3AE0C248844208D10121E5
:1016F000102000F015FB0021102000F011FB2EE05F
:10170000BD48844208D10121202000F009FB0021BE
:10171000202000F005FB22E0B848844208D10121D6
:10172000402000F0FDFA0021402000F0F9FA16E018
:10173000B348844208D10121802000F0F1FA002151
:10174000802000F0EDFA0AE0AE48844207D1012182
:10175000801500F0E5FA0021A01500F0E1FA10BDB7
:1017600010B50121084600F0DBFA0021012000F04D
:10177000D7FA10BD2DE9F0410246002500260020D1
:1017800000230024002791F803C00CF00F0591F806
:1017900003C00CF0100CBCF1000F03D091F802C094
:1017A0004CEA050591F800C0BCF1000F31D0146877
:1017B00000202BE04FF0010C0CFA00F3B1F800C050
:1017C0000CEA03069E4220D183004FF00F0C0CFA66
:1017D00003F7BC4305FA03FC4CEA040491F803C088
:1017E000BCF1280F06D14FF0010C0CFA00FCC2F836
:1017F00014C00AE091F803C0BCF1480F05D14FF0C6
:10180000010C0CFA00FCC2F810C0401C0828D1D30F
:101810001460B1F800C0BCF1FF0F34DD5468002043
:101820002EE000F1080C4FF0010808FA0CF3B1F8B3
:1018300000C00CEA03069E4221D183004FF00F0C3A
:101840000CFA03F7BC4305FA03FC4CEA040491F8D4
:1018500003C0BCF1280F05D100F1080C08FA0CF800
:10186000C2F8148091F803C0BCF1480F07D100F111
:10187000080C4FF0010808FA0CF8C2F81080401C60
:101880000828CED35460BDE8F0814FF6FF71018087
:10189000022181700421C1707047024600209368C4
:1018A0000B400BB1012000E0002070470146886822
:1018B00080B2704702460020D3680B400BB1012074
:1018C00000E0002070470146C86880B2704701619F
:1018D0007047416170470AB1016100E041617047A2
:1018E000C16070474FF480320A4382618161826136
:1018F00082698269704702460020434B18684FF6A0
:101900008073184040EA021008433F4B186070474C
:101910003E49C8617047F0B50A4600230024002103
:10192000002500F00046B6F1004F02D1364EF169B5
:1019300001E0354E7168C0F3034583B200F44016F0
:10194000B6F5401F08D121F070612F4E766826F061
:1019500070662D4F7E6012E000F48016B6F5801F91
:1019600006D1032606FA05F4A14341F0706106E0B2
:10197000460D360103FA06F6B14341F0706122B11B
:10198000460D360103FA06F6314300F00046B6F183
:10199000004F02D11C4EF16101E01B4E7160F0BDA1
:1019A00030B500228B071C0F0F2303FA04F2164BED
:1019B00008338C1053F824309343134C08348D10A3
:1019C00044F8253023468C1053F824308C07240F1C
:1019D00000FA04F423430C4C08348D1044F82530ED
:1019E00030BD0A49DC310860704700000008014042
:1019F000000C01400010014000140140001801409B
:101A0000001C014000200140000001400000204275
:101A1000DF48006840F00100DD4908600846406882
:101A2000DC490840DA49486008460068DA4908405D
:101A3000D74908600846006820F4802008600846FE
:101A4000406820F4FE0048604FF41F008860704733
:101A5000CF49096821F48031CD4A116011460968E7
:101A600021F480211160B0F5803F03D0B0F5802FC4
:101A70000ED106E0C649096841F48031C44A1160BC
:101A800007E0C349096841F4A021C14A116000E0A0
:101A900000BF00BF704710B50146002200230020A0
:101AA0004A11012A02D1BA4C236806E0022A02D167
:101AB000B74C236A01E0B64C636A01F01F020124AF
:101AC00094401C400CB1012000E0002010BD38B54E
:101AD000002000900024002500BF3120FFF7DBFF2D
:101AE00005460098401C00900098B0F5A06F01D00A
:101AF000002DF2D03120FFF7CEFF08B1012400E025
:101B00000024204638BD01460020A14A106820F07C
:101B1000F80040EAC10010607047A04908607047B3
:101B2000024600209A4B586820F47C1042EA0103D8
:101B30001843974B586070479849086670470146AC
:101B40000020934A506820F003000843506070471B
:101B50008F48406800F00C007047014600208C4A16
:101B6000506820F0F00008435060704701460020A4
:101B7000874A506820F4E06008435060704701468F
:101B80000020834A506820F4605040EAC100506051
:101B9000704729B17E4A527A02437D4B5A7204E063
:101BA0007B4A527A82437A4B5A7270477B49D831CA
:101BB0000860704701460020754A506820F4404094
:101BC0000843506070470021714A20321170704AFA
:101BD00082F82010012802D004280AD104E0012153
:101BE0006B4A2032117005E00521694A20321170DC
:101BF00000E000BF00BF7047694908607047644952
:101C0000096A0143624A11627047654944390860B4
:101C1000704730B500210022002400235C4D6D6820
:101C200005F00C0121B1042905D0082923D105E0D4
:101C30005C4D056022E05B4D05601FE0544D6D6812
:101C400005F47012524D6D6805F48034022505EBE1
:101C500092421CB9544D554305600BE04C4D6D68E4
:101C600005F400351DB1504D5543056002E04D4D62
:101C70005543056002E04B4D056000BF00BF444D79
:101C80006D6805F0F0010909484D6B5C0568DD40A1
:101C900045603F4D6D6805F4E061090A434D6B5C9A
:101CA0004568DD4085603A4D6D6805F46051C90AAC
:101CB0003E4D6B5C4568DD40C560354D6D6805F493
:101CC0004041890B3A4D6B5CC568B5FBF3F5056186
:101CD00030BD29B12E4A526902432D4B5A6104E0AE
:101CE0002B4A526982432A4B5A61704729B1284ACC
:101CF00092690243264B9A6104E0254A9269824325
:101D0000234B9A61704729B1214AD2690243204B83
:101D1000DA6104E01E4AD26982431D4BDA617047E2
:101D200029B11B4AD2680243194BDA6004E0184A11
:101D3000D2688243164BDA60704729B1144A12699F
:101D40000243134B1A6104E0114A12698243104B9B
:101D50001A61704712494039086070470F49C864DA
:101D600070470B49C87170470948406A40F080705D
:101D700007494862704701460020054A92680A40B8
:101D80000AB1012000E000207047014988727047C5
:101D9000001002400000FFF8FFFFF6FE0000424284
:101DA0008004424200127A0000093D0044010020F4
:101DB0005401002010B50446FE48844208D1012198
:101DC000C014FFF7ADFF0021E014FFF7A9FFC4E046
:101DD000B4F1804F08D101210846FFF7AEFF002182
:101DE0000120FFF7AAFFB8E0F348844208D101219F
:101DF0000220FFF7A2FF00210220FFF79EFFACE0C8
:101E0000EE48844208D101210420FFF796FF00210B
:101E10000420FFF792FFA0E0E948844208D10121A5
:101E20000820FFF78AFF00210820FFF786FF94E0D3
:101E3000E448844208D101211020FFF77EFF0021F1
:101E40001020FFF77AFF88E0DF48844208D10121A3
:101E50002020FFF772FF00212020FFF76EFF7CE0BB
:101E6000DA48844208D101214014FFF759FF0021CC
:101E70006014FFF755FF70E0D548844209D1012175
:101E8000C804FFF74DFF00214FF40020FFF748FF83
:101E900063E0D048844209D101210805FFF740FFE3
:101EA00000214FF48010FFF73BFF56E0CA48844200
:101EB00009D101214805FFF733FF00214FF400103D
:101EC000FFF72EFF49E0C548844208D10121402098
:101ED000FFF733FF00214020FFF72FFF3DE0C04810
:101EE000844208D101218020FFF727FF00218020B4
:101EF000FFF723FF31E0BB48844208D10121801560
:101F0000FFF71BFF0021A015FFF717FF25E0B648DC
:101F1000844209D101210804FFF702FF00214FF498
:101F20008030FFF7FDFE18E0B048844209D101215E
:101F30004804FFF7F5FE00214FF40030FFF7F0FEF4
:101F40000BE0AB48844208D101218804FFF7E8FE8A
:101F500000214FF48020FFF7E3FE10BD002202882D
:101F6000944B98420ED0994B98420BD0B0F1804FD1
:101F700008D0914B984205D0904B984202D0904B9C
:101F8000984204D14FF68F731A404B881A438D4BF9
:101F9000984207D08C4B984204D04FF6FF431A402A
:101FA000CB881A4302808B8883850B880385814BFD
:101FB00098420BD0854B984208D08B4B984205D065
:101FC0008A4B984202D08A4B984201D10B7A038601
:101FD00001238382704770B5002400220023058C02
:101FE0004FF6FE7635400584028C8388048B4FF6CD
:101FF0008F752C40B51E2C400D882C43751E2A4031
:102000000D892A434D882A436A4DA8420BD06F4D53
:10201000A84208D0744DA84205D0744DA84202D001
:10202000734DA84213D14FF6F7752A404D892A43C4
:102030004FF6FB752A408D882A434FF6FF652B40EB
:102040004FF6FF552B408D892B43CD892B43838041
:102050000483CD888586028470BD70B5002400227B
:102060000023058C4FF6EF7635400584028C83887B
:10207000048B48F6FF752C404FF6FF452C400D8829
:102080004FF6FF7606EA05252C434FF6DF752A400A
:102090000D8906EA05152A434D8806EA05152A43E7
:1020A000444DA84202D0494DA8421DD14FF67F753C
:1020B0002A404D894FF6FF7606EA05152A434FF66A
:1020C000BF752A408D8806EA05152A434FF6FF356D
:1020D0002B404FF2FF752B408D8906EA85052B4377
:1020E000CD8906EA85052B4383800483CD88058747
:1020F000028470BD70B5002400220023058C4FF6C9
:10210000FF6635400584028C8388848B4FF68F757B
:102110002C404FF6FC752C400D882C434FF6FF5594
:102120002A400D894FF6FF7606EA05252A434D8899
:1021300006EA05252A431F4DA84202D0234DA84296
:102140001DD14FF2FF752A404D894FF6FF7606EA02
:1021500005252A434FF6FF352A408D8806EA0525D6
:102160002A434EF6FF752B404DF6FF752B408D89A7
:1021700006EA05152B43CD8906EA05152B43838016
:102180008483CD888587028470BD70B500220023CA
:102190000024058C4EF6FF7635400584038C848838
:1021A000828B48F6FF752A404FF6FF452A400D887E
:1021B00020E00000002C0140000400400008004026
:1021C000000C0040001000400014004000340140AA
:1021D000004C0140005001400054014000180040F4
:1021E000001C00400020004000400140004401402D
:1021F000004801404FF6FF7606EA05252A434DF6D2
:10220000FF752B400D8906EA05352B434D8806EAFC
:1022100005352B43FA4DA84202D0FA4DA84208D109
:102220004BF6FF752C408D894FF6FF7606EA851533
:102230002C4384808283CD88A0F84050038470BDF5
:10224000828B4FF2FF331A408283828B4FF6FF73EB
:1022500003EA01231A4382837047F0B50C46154602
:10226000002200210026078C4EF6FF7C07EA0C07AF
:102270000784828B018C4FF6FF7707EA043640F61D
:10228000FF473A404FF6FF7707EA05273A434FF6F4
:10229000FF7707EA03373A43D94FB8420ED0D94FF8
:1022A000B8420BD0B0F1804F08D0D74FB84205D01C
:1022B000D64FB84202D0D64FB84206D14DF6FF777E
:1022C000394046F48057394305E047F6FF57394017
:1022D00044F48057394382830184F0BD828B4FF6EA
:1022E000F3731A408283828B0A4382837047F0B56E
:1022F0000C461546002200210026078C4FF6FF6C85
:1023000007EA0C070784828B018C4FF6FF7707EAF8
:1023100004264FF60C773A404FF6FF7707EA03178B
:102320002F433A43B64FB8420ED0B64FB8420BD007
:10233000B0F1804F08D0B44FB84205D0B34FB84287
:1023400002D0B34FB84206D14FF6FF57394046F49A
:102350008077394305E04FF2FF57394044F48077E6
:10236000394382830184F0BD028B4FF2FF331A4060
:102370000283028B4FF6FF7303EA01231A430283A1
:102380007047F0B50C461546002200210026078C48
:102390004FF6EF7C07EA0C070784028B018C4FF69F
:1023A000FF7707EA041640F6FF473A404FF6FF77FB
:1023B00007EA03373A434FF6FF7707EA05273A4320
:1023C0008F4FB8420ED08F4FB8420BD0B0F1804F34
:1023D00008D08D4FB84205D08C4FB84202D08C4FF8
:1023E000B84206D14FF6DF77394046F0100739433F
:1023F00005E04FF65F77394044F010073943028318
:102400000184F0BD028B4FF6F3731A400283028BF6
:102410000A4302837047F0B50C461546002200219E
:10242000068C4FF6FE773E400684028B018C4FF6F9
:102430000C7632407E1C06EA03162E433243704E61
:10244000B0420ED06F4EB0420BD0B0F1804F08D0EA
:102450006D4EB04205D06D4EB04202D06C4EB042CF
:1024600006D14FF6FD76314044F00106314305E0D8
:102470004FF6F576314044F0010631430283018482
:10248000F0BD70B505460C465D4885420ED05D48EE
:1024900085420BD0B5F1804F08D05B48854205D00E
:1024A0005A48854202D05A48854200D100E000BF18
:1024B000208850B92389A28861882846FFF7ABFF9E
:1024C000E1882846FFF79EFF25E0208804280AD1EE
:1024D0002389A28861882846FFF753FFE1882846B0
:1024E000FFF742FF17E0208808280AD12389A28835
:1024F00061882846FFF7FBFEE1882846FFF7EEFEDD
:1025000009E02389A28861882846FFF7A6FEE188B2
:102510002846FFF795FE70BD2DE9F04105460C46B3
:1025200000260127608808B9022600E00026A0885E
:10253000012801D1022700E001272088A0B92389C2
:10254000A28861882846FFF766FFE1882846FFF7E2
:1025500059FF23893A4631462846FFF712FFE188A2
:102560002846FFF701FF13E02389A28861882846E7
:10257000FFF707FFE1882846FFF7F6FE23893A4672
:1025800031462846FFF747FFE1882846FFF73AFF24
:10259000BDE8F0810A884B881A438B881A43CB88A0
:1025A0001A430B891A434B891A438B891A43A0F8A3
:1025B000442070474FF6FF71818000210180C18067
:1025C0004180017270470021018041808180C1807B
:1025D000018141818181C181704700210180418059
:1025E000012181800021C18001817047002101808B
:1025F00041808180C18001814181818170470000DB
:10260000002C01400034014000040040000800405C
:10261000000C004021B1028842F00102028004E077
:1026200002884FF6FE731A400280704731B1B0F84D
:10263000442042F40042A0F8442005E0B0F84420D1
:10264000C2F30E02A0F8442070471AB183890B43ED
:10265000838102E083898B43838170478182704745
:1026600041EA0203A0F8483070471AB183890B434E
:10267000838102E083898B438381704701894FF610
:10268000F8721140018170470A46002101894FF616
:102690008F73194011430181704730B504460D46D0
:1026A00029462046FFF7F0FF208940F007002081EF
:1026B00030BD2DE9F04104460D4616461F46602DFB
:1026C00006D13B46012231462046FFF75AFE05E07F
:1026D0003B46012231462046FFF79DFE2946204613
:1026E000FFF7D2FF208940F007002081BDE8F0818C
:1026F00030B50C4600210189C9B24FF6FF7505EAD5
:102700000325154325432943018130BD2DE9F041BF
:1027100005460E4617469846002443463A4631463B
:102720002846FFF7E5FF2C894FF6F870044044F087
:1027300007044FF68F70044044F070042C81BDE80C
:10274000F081F0B504460D4616461F463B4632461C
:1027500029462046FFF7CCFF208940F480402081A5
:10276000F0BD0185828270470A46002101884FF63C
:102770008F731940114301807047F0B50C46154620
:102780001E460021002200230189028B038C4FF694
:10279000F877394021434FF6FC473A4040F20117A1
:1027A0003A434FF6DD773B404FF6FF7707EA0617CF
:1027B0002F433B43018102830384F0BD0A4600217D
:1027C000018B4FF68F7319401143018370470A46FE
:1027D0000021018B48F6FF7319404FF6FF7303EA9F
:1027E00002231943018370470A460021818B4FF66B
:1027F0008F7319401143818370470A460021818BF2
:1028000048F6FF7319404FF6FF7303EA022319439A
:102810008183704721B1028842F08002028004E087
:1028200002884FF67F731A400280704721B1828878
:1028300042F00402828004E082884FF6FB731A4063
:102840008280704721B1828842F00802828004E0D1
:1028500082884FF6F7731A408280704721B18288D0
:1028600042F00102828004E082884FF6FE731A4033
:10287000828070470A460021018B4FF6F77319409A
:102880001143018370470A460021018B4FF2FF7309
:1028900019404FF6FF7303EA02231943018370477F
:1028A0000A460021818B4FF6F7731940114381834B
:1028B00070470A460021818B4FF2FF7319404FF693
:1028C000FF7303EA02231943818370470A460021FC
:1028D000018B4FF6FB7319401143018370470A4681
:1028E0000021018B4FF6FF3319404FF6FF7303EAC7
:1028F00002231943018370470A460021818B4FF65A
:10290000FB7319401143818370470A460021818B74
:102910004FF6FF3319404FF6FF7303EA02231943C2
:10292000818370470A460021018B4FF67F7319405F
:102930001143018370470A460021018BC1F30E0148
:102940004FF6FF7303EA02231943018370470A46D7
:102950000021818B4FF67F731940114381837047AB
:102960000A460021818BC1F30E014FF6FF7303EA83
:1029700002231943818370470A460021018C4FF6D8
:10298000FD7319401143018470470A460021018CF0
:102990004FF6F77319401143018470470A4600212E
:1029A000018C4FF6DF7319404FF6FF7303EA0213F1
:1029B0001943018470470A460021018C4FF67F734A
:1029C00019404FF6FF7303EA02131943018470475D
:1029D0000A460021018C4FF6FF5319404FF6FF7352
:1029E00003EA02231943018470470A460021018C3F
:1029F0004FF2FF7319404FF6FF7303EA02231943A6
:102A0000018470470A460021018C4DF6FF7319407E
:102A10004FF6FF7303EA023319430184704730B560
:102A2000002301248C40A3B2048C9C430484048CB6
:102A300002FA01F5ADB22C43048430BD30B5002359
:102A400004248C40A3B2048C9C430484048C02FABA
:102A500001F5ADB22C43048430BD70B503460020AF
:102A600000241846183001258D40ACB21D8CA543BA
:102A70001D8409B1082909D100EB6100056825F022
:102A8000700505600568154305600EE00D1FC5F370
:102A90004E052844056825F4E045056005684FF6B5
:102AA000FF7606EA02263543056070BD21B1028833
:102AB00042F00202028004E002884FF6FD731A40E1
:102AC0000280704721B1028842F00402028004E0D3
:102AD00002884FF6FB731A400280704721B182884A
:102AE00042F08002828004E082884FF67F731A40B1
:102AF0008280704702884FF6F7731A40028002887E
:102B00000A430280704782884FF68F731A40828092
:102B100082880A438280704702894FF6F8731A4010
:102B2000028102890A430281704702894FF67F734E
:102B30001A40028102890A430281704781847047EA
:102B4000818570478186704701877047818770470C
:102B5000A0F84010704702884FF6FF431A400280E9
:102B600002880A43028070470146888E70470146FA
:102B7000088F70470146888F70470146B1F84000C2
:102B800070470146888C70470146088D70470246A1
:102B90000020138A0B400BB1012000E00020704799
:102BA000CA430282704730B5024600200023002449
:102BB000158A05EA0103958905EA010413B10CB1F0
:102BC000012000E0002030BDCA43028270470000AF
:102BD00010B50446FB48844209D101218803FFF760
:102BE0009FF800214FF48040FFF79AF832E0F64852
:102BF000844209D101214804FFF79FF800214FF4D6
:102C00000030FFF79AF825E0F048844209D101210D
:102C10008804FFF792F800214FF48020FFF78DF829
:102C200018E0EB48844209D10121C804FFF785F878
:102C300000214FF40020FFF780F80BE0E5488442C4
:102C400008D101210805FFF778F800214FF4801022
:102C5000FFF773F810BD2DE9F04786B005460E4624
:102C60000024A24600BFA1460027B08900B100BFE2
:102C70002F462C8A4CF6FF700440F08804432C82C7
:102C8000AC894EF6F3100440B0883189084371894D
:102C900008430443AC81AC8A4FF6FF400440B0893E
:102CA0000443AC8201A8FEF7B4FFC648874202D1B4
:102CB000DDF810A001E0DDF80CA0A88900F40040C8
:102CC00040B10AEBCA0000EB0A1031684900B0FBC2
:102CD000F1F807E00AEBCA0000EB0A10316889003E
:102CE000B0FBF1F86420B8FBF0F004012009642186
:102CF00001FB1089A88900F4004040B1322000EBAC
:102D0000C900B0FBF1F000F00700044308E03220F6
:102D100000EB09106421B0FBF1F000F00F00044358
:102D20002C8106B0BDE8F0874FF4165101600021F8
:102D30008180C18001810C21418100218181704706
:102D400010B502460020108A4FF2FF0318400B888E
:102D50004C8823438C882343CC8823431843108218
:102D600010BD0021018041808180C180704721B168
:102D7000828942F40052828104E082894DF6FF7319
:102D80001A4082817047F0B50346002400260025D2
:102D9000002040F66A17B94200D100BF1846C1F3BF
:102DA000421401F01F06012707FA06F5012C01D194
:102DB0000C3004E0022C01D1103000E014301AB1C4
:102DC00007682F43076002E00768AF430760F0BD64
:102DD0001AB1838A0B43838202E0838A8B43838206
:102DE0007047028A4FF6F0731A400282028A0A4341
:102DF0000282704782894FF2FF731A408281828972
:102E00000A438281704721B1828942F002028281A5
:102E100004E082894FF6FD731A4082817047028A6E
:102E20004FF6DF731A400282028A0A430282704719
:102E300021B1028A42F48042028204E0028A4BF607
:102E4000FF731A4002827047C1F308028280704704
:102E500001468888C0F308007047818941F001016C
:102E600081817047028BD2B20283028B42EA012237
:102E700002837047028B02F47F420283028B0A4373
:102E80000283704721B1828A42F02002828204E0EC
:102E9000828A4FF6DF731A408282704721B1828A9C
:102EA00042F01002828204E0828A4FF6EF731A40E9
:102EB0008282704721B1828A42F00802828204E055
:102EC000828A4FF6F7731A408282704721B1828955
:102ED00042F40042828103E08289C2F30E028281C1
:102EE000704721B1828A42F40062828204E0828AC1
:102EF0004FF2FF731A4082827047828A4FF6FB734B
:102F00001A408282828A0A438282704721B1828A71
:102F100042F00202828204E0828A4FF6FD731A4078
:102F20008282704702460020B1F5007F00D100BFC9
:102F300013880B400BB1012000E00020704701F422
:102F40000072B2F5007F00D100BFCA430280704713
:102F500070B50246002400230025002040F66A16C2
:102F6000B14200D100BFC1F3421501F01F03012699
:102F700006FA03F3012D02D19689334006E0022DB3
:102F800002D1168A334001E0968A33400C120126A2
:102F900006FA04F41688344013B10CB1012000E0A5
:102FA000002070BD10B50022002340F66A14A14233
:102FB00000D100BF0A1201249440A3B2DC43048074
:102FC00010BD0000003801400044004000480040AF
:102FD000004C00400050004001460020FE4A1068AE
:102FE00000F03800084310607047FB49096821F081
:102FF0000801F94A116011460968014311607047E0
:10300000F549096821F01001F34A11601146096879
:10301000014311607047F148EF494860F04848604B
:103020007047EE48EC494860ED4848607047EA4810
:10303000006940F08000E84908617047E64800698F
:1030400040F08000E449086170470420E249C96803
:1030500001F0010109B101200EE0DF49C96801F06A
:10306000040109B1022007E0DB49C96801F0100141
:1030700009B1032000E00420704700B50246042394
:10308000FFF7E3FF034603E0FFF7DFFF0346521EAF
:10309000012B01D1002AF7D102B90523184600BD42
:1030A00030B5044604254FF43020FFF7E6FF05460F
:1030B000042D17D1C848006940F00200C6490861D4
:1030C00008464461006940F0400008614FF4302038
:1030D000FFF7D3FF0546C048006941F6FD7108407F
:1030E000BD490861284630BD10B504244FF4302096
:1030F000FFF7C3FF0446042C16D1B748006940F01F
:103100000400B54908610846006940F040000861C4
:103110004FF43020FFF7B1FF0446AF48006941F695
:10312000FB710840AC490861204610BD00B502465D
:103130000423FFF78AFF034603E0FFF786FF0346F9
:10314000521E012B01D1002AF7D102B905231846DE
:1031500000BD10B504244FF43020FFF7E7FF04460C
:10316000042C16D19C48006940F004009A4908617B
:103170000846006940F0400008614FF43020FFF736
:10318000D5FF04469448006941F6FB710840924916
:103190000861204610BD00208F49C96901F0020175
:1031A00009B1012000E00020704730B5A5250424B6
:1031B000FFF7F1FF00B100254FF43020FFF75DFF6E
:1031C0000446042C3AD18548834988608448886045
:1031D0000846006940F0200008610846006940F098
:1031E000400008614FF43020FFF747FF0446042CED
:1031F0001BD17948006941F6DF71084076490861C2
:103200000846006940F01000086176480580E00239
:10321000FFF733FF0446052C10D06F48006941F6D4
:10322000EF7108406C49086108E0052C06D06A4837
:10323000006941F6EF71084067490861204630BDDA
:1032400078B506460C46042500200090E802FFF7FA
:1032500014FF0546042D24D15F48006940F00100A9
:103260005D4908613480E802FFF707FF0546042D39
:1032700010D1B01C0090200C00990880E802FFF7E4
:10328000FCFE05465448006941F6FE71084052496B
:10329000086106E05048006941F6FE7108404E4959
:1032A0000861284678BD70B504460D460426F00234
:1032B000FFF7E3FE0646042E11D14748006940F0AF
:1032C0000100454908612580F002FFF7D6FE064659
:1032D0004148006941F6FE7108403F4908613046A7
:1032E00070BD70B505460E460424E002FFF7C5FE2A
:1032F0000446042C17D1394837498860384888601B
:103300000846006940F0100008612E80E002FFF7D7
:10331000B4FE0446052C06D02F48006941F6EF7133
:1033200008402D490861204670BD2DE9F043044650
:103330004FF6FF763746B046B1460425E443E6B281
:10334000C4F30727C4F307484FEA1469E802FFF7FC
:1033500094FE0546042D49D120481F498860204825
:1033600088600846006940F010000861FF2E06D012
:103370001C4808300680E802FFF77FFE0546042D52
:1033800008D1FF2F06D017480A300780E802FFF760
:1033900074FE0546042D0AD1B8F1FF0F07D011487D
:1033A0000C30A0F80080E802FFF767FE0546042D08
:1033B0000AD1B9F1FF0F07D00A480E30A0F80090EB
:1033C000E802FFF75AFE0546052D0FD002480069B6
:1033D00041F6EF71084007E00020024023016745F5
:1033E000AB89EFCD00F8FF1F664908612846BDE8AC
:1033F000F08330B5054604244FF43020FFF73DFE3E
:103400000446042C41D160485E4988605F4888606A
:103410000846006940F0200008610846006940F055
:10342000400008614FF43020FFF727FE0446042CCB
:1034300022D15448006941F6DF71084051490861C2
:103440000846006940F0100008611DB10020504995
:10345000088002E0A5204E4908804FF43020FFF795
:103460000CFE0446052C10D04648006941F6EF7169
:1034700008404449086108E0052C06D0414800692D
:1034800041F6DF7108403F490861204630BDF0B584
:1034900005460E46174604243B483A4988603B4897
:1034A0008860E002FFF7E9FD0446042C19D1354895
:1034B000006940F010003349086147F0F8003043DC
:1034C00028433349891C0880E002FFF7D6FD0446F3
:1034D000052C06D02B48006941F6EF7108402949B8
:1034E00008612046F0BD2748C0698008704725481C
:1034F000006A704700202349096801F0200109B1E2
:10350000012000E00020704729B11E4A12690243E1
:103510001C4B1A6104E01B4A12698243194B1A6161
:10352000704701460020012908D1164AD26902F0ED
:1035300001020AB1012008E0002006E0114AD26829
:103540000A400AB1012000E0002070470D49C86020
:10355000704704200B49C96801F0010109B101203D
:103560000EE00849C96801F0040109B1022007E032
:103570000449C96801F0100109B1032000E00420EA
:10358000704700000020024023016745AB89EFCD62
:1035900000F8FF1F0E49086070470D4948607047EA
:1035A0000B49886070474AF6AA20094908607047AD
:1035B0004CF6CC4006490860704701460020044A9A
:1035C000D2680A400AB1012000E0002070470000E4
:1035D000003000400CB50020019000906C4800685D
:1035E00040F480306A49086000BF6948006800F410
:1035F000003000900198401C0190009818B9019883
:10360000B0F5A06FF1D16248006800F4003010B14D
:103610000120009001E0002000900098012843D193
:103620005C48006840F010005A490860084600688D
:1036300020F0030008600846006840F002000860BF
:103640005348406852494860084640684860084608
:10365000406840F4806048600846406820F47C1070
:1036600048600846406840F4E81048600846006832
:1036700040F08070086000BF4548006800F00070AE
:103680000028F9D04248406820F0030040494860D3
:103690000846406840F00200486000BF3C4840686F
:1036A00000F00C000828F9D10CBD10B5FFF792FF0F
:1036B00010BD10B53648006840F00100344908607C
:1036C0000846406834490840314948600846006867
:1036D000324908402E4908600846006820F48020DE
:1036E00008600846406820F4FE0048604FF41F0060
:1036F0008860FFF7DAFF4FF000602949086010BDCD
:1037000010B5002100200022214B5B6803F00C0162
:1037100021B1042906D0082928D107E0214B224CE9
:10372000236027E01F4B204C236023E0184B5B688D
:1037300003F47010164B5B6803F48032022303EB32
:10374000904022B9194B4343174C23600DE0104BB6
:103750005B6803F4003323B1144B4343124C2360E2
:1037600003E0104B4343104C236003E00D4B0E4C21
:10377000236000BF00BF064B5B68C3F303130C4C10
:10378000E15C094B1B68CB40074C236010BD000077
:1037900000100240002002400000FFF8FFFFF6FE8C
:1037A00008ED00E000127A005801002000093D00F9
:1037B0005C0100200948804709480047FEE7FEE712
:1037C000FEE7FEE7FEE7FEE7FEE7FEE7FEE7FEE7D1
:1037D00004480549054A064B70470000B336000807
:1037E0003101000888040020880A00208806002093
:1037F00088060020704700000FB4044910B503AAE2
:10380000029800F033F910BC5DF814FB3C01002075
:103810002DE9F0410E460446002020622046E16872
:10382000884730B3252805D0D4E901219047206A84
:10383000401CF2E7E168204600278847050018D0C1
:10384000A5F14100192802D820354FF4006732460F
:10385000294620462760FCF7C5FC40B1012804D06A
:10386000F61D26F007060836D8E7361DD6E72846A7
:10387000DAE7206ABDE8F0812DE9F0410646002430
:1038800010687529314616A510D0AFF300800028C6
:1038900002DA404213A507E031688A0701D512A574
:1038A00002E0490704D511A5012401E0AFF300802F
:1038B00000210A2206F1240709E0B0FBF2FCB0FB6C
:1038C000F2F302FB1C00303078541846491C0028E3
:1038D000F3D123462A463046BDE8F04100F06DB8EA
:1038E000000000002D0000002B0000002000000060
:1038F00030B505460B462A4613F8014B12F8010B6A
:1039000008B1A042F8D01CB1002802D06D1CF1E72C
:10391000284630BD40EA0103024630B59B0710D16E
:103920004FF0013400E008C208C91D1B9D4315EA91
:10393000C41FF8D013F0FF0102F8011B0DD01B0AC1
:10394000F8E711F8013B002B02F8013B05D011F814
:10395000013B002B02F8013BF3D130BD10B5431CF5
:1039600002E010F8011B71B18107FAD14FF001326A
:1039700002C88C1A8C4314EAC211F9D0C01A0A0684
:1039800003D0C01E10BDC01A10BD0A0401D0801E95
:1039900010BD0902FCD0401E10BD421E12F8013FAE
:1039A000002BFBD111F8013B002B02F8013BF9D1B0
:1039B000704770477047704770472DE9F0470D46D4
:1039C00099469246044600F124080168880604D509
:1039D000E06921F01001216000E00120A84201DD32
:1039E000471B00E00027A1697A1902EB0900081AB9
:1039F000A0612078C00602D42046AFF300800026E4
:103A000008E0D4E901211AF806009047206A401C1A
:103A1000761C20624E45F4DB2078C0060AD520468D
:103A2000AFF3008006E0D4E9012130209047206AFE
:103A3000401C2062381EA7F10107F4DC07E0D4E93E
:103A4000012118F805009047206A401C2062281EBA
:103A5000A5F10105F3DC2046AFF3008020780006D5
:103A600002D50220BDE8F0870120FBE7074B70B5C7
:103A70000D467B4400F011F80446284600F020F87B
:103A800010B14FF0FF3070BD204670BD51D6FFFF22
:103A900001694A1C02610878704700B58FB0CDE912
:103AA00001310021059105497944CDE90310114602
:103AB0006846FFF7ADFE0FB000BD0000E5FFFFFF59
:103AC000007B00F080007047754600F029F8AE4694
:103AD00005006946534620F00700854618B020B51A
:103AE000FFF776FEBDE820404FF000064FF00007DC
:103AF0004FF000084FF0000B21F00701AC46ACE896
:103B0000C009ACE8C009ACE8C009ACE8C0098D4602
:103B100070470446AFF300802046FCF775FB0000B9
:103B20000048704728040020483B0008000000209F
:103B30006C0100006C010008C83B00086C0100200B
:103B40001C090000C8010008284341542B48545464
:103B500050504152413D2255524C222C22687474DF
:103B6000703A2F2F6170692E6A7265616465722EDA
:103B70006E65743A393938302F7374617475732EE9
:103B80007068703F69643D353230313001044D3129
:103B90006F22092D966F7265706F72749601279966
:103BA000BD110F22266F703D2D31C463D007F20185
:103BB0002D0102030404100906070809020406087F
:083BC000ACA24A041C29180004
:0400000508000131BD
:00000001FF
